{"abi":[{"type":"constructor","inputs":[{"name":"_creator","type":"address","internalType":"address"}],"stateMutability":"nonpayable"},{"type":"function","name":"MINT_PRICE","inputs":[],"outputs":[{"name":"","type":"uint256","internalType":"uint256"}],"stateMutability":"view"},{"type":"function","name":"approve","inputs":[{"name":"to","type":"address","internalType":"address"},{"name":"tokenId","type":"uint256","internalType":"uint256"}],"outputs":[],"stateMutability":"nonpayable"},{"type":"function","name":"balanceOf","inputs":[{"name":"owner","type":"address","internalType":"address"}],"outputs":[{"name":"","type":"uint256","internalType":"uint256"}],"stateMutability":"view"},{"type":"function","name":"creator","inputs":[],"outputs":[{"name":"","type":"address","internalType":"address"}],"stateMutability":"view"},{"type":"function","name":"fortuneOf","inputs":[{"name":"tokenId","type":"uint256","internalType":"uint256"}],"outputs":[{"name":"","type":"string","internalType":"string"}],"stateMutability":"view"},{"type":"function","name":"getApproved","inputs":[{"name":"tokenId","type":"uint256","internalType":"uint256"}],"outputs":[{"name":"","type":"address","internalType":"address"}],"stateMutability":"view"},{"type":"function","name":"getNextTokenId","inputs":[],"outputs":[{"name":"","type":"uint256","internalType":"uint256"}],"stateMutability":"view"},{"type":"function","name":"isApprovedForAll","inputs":[{"name":"owner","type":"address","internalType":"address"},{"name":"operator","type":"address","internalType":"address"}],"outputs":[{"name":"","type":"bool","internalType":"bool"}],"stateMutability":"view"},{"type":"function","name":"mint","inputs":[{"name":"fortuneText","type":"string","internalType":"string"}],"outputs":[{"name":"tokenId","type":"uint256","internalType":"uint256"}],"stateMutability":"payable"},{"type":"function","name":"name","inputs":[],"outputs":[{"name":"","type":"string","internalType":"string"}],"stateMutability":"view"},{"type":"function","name":"ownerOf","inputs":[{"name":"tokenId","type":"uint256","internalType":"uint256"}],"outputs":[{"name":"","type":"address","internalType":"address"}],"stateMutability":"view"},{"type":"function","name":"safeTransferFrom","inputs":[{"name":"from","type":"address","internalType":"address"},{"name":"to","type":"address","internalType":"address"},{"name":"tokenId","type":"uint256","internalType":"uint256"}],"outputs":[],"stateMutability":"nonpayable"},{"type":"function","name":"safeTransferFrom","inputs":[{"name":"from","type":"address","internalType":"address"},{"name":"to","type":"address","internalType":"address"},{"name":"tokenId","type":"uint256","internalType":"uint256"},{"name":"data","type":"bytes","internalType":"bytes"}],"outputs":[],"stateMutability":"nonpayable"},{"type":"function","name":"setApprovalForAll","inputs":[{"name":"operator","type":"address","internalType":"address"},{"name":"approved","type":"bool","internalType":"bool"}],"outputs":[],"stateMutability":"nonpayable"},{"type":"function","name":"supportsInterface","inputs":[{"name":"interfaceId","type":"bytes4","internalType":"bytes4"}],"outputs":[{"name":"","type":"bool","internalType":"bool"}],"stateMutability":"view"},{"type":"function","name":"symbol","inputs":[],"outputs":[{"name":"","type":"string","internalType":"string"}],"stateMutability":"view"},{"type":"function","name":"tokenSupply","inputs":[],"outputs":[{"name":"","type":"uint256","internalType":"uint256"}],"stateMutability":"view"},{"type":"function","name":"tokenURI","inputs":[{"name":"tokenId","type":"uint256","internalType":"uint256"}],"outputs":[{"name":"","type":"string","internalType":"string"}],"stateMutability":"view"},{"type":"function","name":"transferFrom","inputs":[{"name":"from","type":"address","internalType":"address"},{"name":"to","type":"address","internalType":"address"},{"name":"tokenId","type":"uint256","internalType":"uint256"}],"outputs":[],"stateMutability":"nonpayable"},{"type":"event","name":"Approval","inputs":[{"name":"owner","type":"address","indexed":true,"internalType":"address"},{"name":"approved","type":"address","indexed":true,"internalType":"address"},{"name":"tokenId","type":"uint256","indexed":true,"internalType":"uint256"}],"anonymous":false},{"type":"event","name":"ApprovalForAll","inputs":[{"name":"owner","type":"address","indexed":true,"internalType":"address"},{"name":"operator","type":"address","indexed":true,"internalType":"address"},{"name":"approved","type":"bool","indexed":false,"internalType":"bool"}],"anonymous":false},{"type":"event","name":"FortuneMinted","inputs":[{"name":"minter","type":"address","indexed":true,"internalType":"address"},{"name":"tokenId","type":"uint256","indexed":true,"internalType":"uint256"},{"name":"fortuneText","type":"string","indexed":false,"internalType":"string"}],"anonymous":false},{"type":"event","name":"Transfer","inputs":[{"name":"from","type":"address","indexed":true,"internalType":"address"},{"name":"to","type":"address","indexed":true,"internalType":"address"},{"name":"tokenId","type":"uint256","indexed":true,"internalType":"uint256"}],"anonymous":false},{"type":"error","name":"ERC721IncorrectOwner","inputs":[{"name":"sender","type":"address","internalType":"address"},{"name":"tokenId","type":"uint256","internalType":"uint256"},{"name":"owner","type":"address","internalType":"address"}]},{"type":"error","name":"ERC721InsufficientApproval","inputs":[{"name":"operator","type":"address","internalType":"address"},{"name":"tokenId","type":"uint256","internalType":"uint256"}]},{"type":"error","name":"ERC721InvalidApprover","inputs":[{"name":"approver","type":"address","internalType":"address"}]},{"type":"error","name":"ERC721InvalidOperator","inputs":[{"name":"operator","type":"address","internalType":"address"}]},{"type":"error","name":"ERC721InvalidOwner","inputs":[{"name":"owner","type":"address","internalType":"address"}]},{"type":"error","name":"ERC721InvalidReceiver","inputs":[{"name":"receiver","type":"address","internalType":"address"}]},{"type":"error","name":"ERC721InvalidSender","inputs":[{"name":"sender","type":"address","internalType":"address"}]},{"type":"error","name":"ERC721NonexistentToken","inputs":[{"name":"tokenId","type":"uint256","internalType":"uint256"}]}],"bytecode":{"object":"0x60a060405234801562000010575f80fd5b5060405162003374380380620033748339818101604052810190620000369190620001d8565b6040518060400160405280601681526020017f486f6c6964617920466f7274756e6520436f6f6b6965000000000000000000008152506040518060400160405280600681526020017f434f4f4b49450000000000000000000000000000000000000000000000000000815250815f9081620000b291906200046c565b508060019081620000c491906200046c565b5050505f73ffffffffffffffffffffffffffffffffffffffff168173ffffffffffffffffffffffffffffffffffffffff160362000138576040517f08c379a00000000000000000000000000000000000000000000000000000000081526004016200012f90620005ae565b60405180910390fd5b8073ffffffffffffffffffffffffffffffffffffffff1660808173ffffffffffffffffffffffffffffffffffffffff168152505050620005ce565b5f80fd5b5f73ffffffffffffffffffffffffffffffffffffffff82169050919050565b5f620001a28262000177565b9050919050565b620001b48162000196565b8114620001bf575f80fd5b50565b5f81519050620001d281620001a9565b92915050565b5f60208284031215620001f057620001ef62000173565b5b5f620001ff84828501620001c2565b91505092915050565b5f81519050919050565b7f4e487b71000000000000000000000000000000000000000000000000000000005f52604160045260245ffd5b7f4e487b71000000000000000000000000000000000000000000000000000000005f52602260045260245ffd5b5f60028204905060018216806200028457607f821691505b6020821081036200029a57620002996200023f565b5b50919050565b5f819050815f5260205f209050919050565b5f6020601f8301049050919050565b5f82821b905092915050565b5f60088302620002fe7fffffffffffffffffffffffffffffffffffffffffffffffffffffffffffffffff82620002c1565b6200030a8683620002c1565b95508019841693508086168417925050509392505050565b5f819050919050565b5f819050919050565b5f620003546200034e620003488462000322565b6200032b565b62000322565b9050919050565b5f819050919050565b6200036f8362000334565b620003876200037e826200035b565b848454620002cd565b825550505050565b5f90565b6200039d6200038f565b620003aa81848462000364565b505050565b5b81811015620003d157620003c55f8262000393565b600181019050620003b0565b5050565b601f8211156200042057620003ea81620002a0565b620003f584620002b2565b8101602085101562000405578190505b6200041d6200041485620002b2565b830182620003af565b50505b505050565b5f82821c905092915050565b5f620004425f198460080262000425565b1980831691505092915050565b5f6200045c838362000431565b9150826002028217905092915050565b620004778262000208565b67ffffffffffffffff81111562000493576200049262000212565b5b6200049f82546200026c565b620004ac828285620003d5565b5f60209050601f831160018114620004e2575f8415620004cd578287015190505b620004d985826200044f565b86555062000548565b601f198416620004f286620002a0565b5f5b828110156200051b57848901518255600182019150602085019450602081019050620004f4565b868310156200053b578489015162000537601f89168262000431565b8355505b6001600288020188555050505b505050505050565b5f82825260208201905092915050565b7f496e76616c69642063726561746f7200000000000000000000000000000000005f82015250565b5f62000596600f8362000550565b9150620005a38262000560565b602082019050919050565b5f6020820190508181035f830152620005c78162000588565b9050919050565b608051612d86620005ee5f395f81816105920152610d330152612d865ff3fe608060405260043610610113575f3560e01c806370a082311161009f578063c002d23d11610063578063c002d23d146103b3578063c87b56dd146103dd578063caa0f92a14610419578063d85d3d2714610443578063e985e9c51461047357610113565b806370a08231146102d35780637824407f1461030f57806395d89b4114610339578063a22cb46514610363578063b88d4fde1461038b57610113565b8063095ea7b3116100e6578063095ea7b3146101e357806323b872dd1461020b57806342842e0e146102335780636352211e1461025b5780636aaf68751461029757610113565b806301ffc9a71461011757806302d05d3f1461015357806306fdde031461017d578063081812fc146101a7575b5f80fd5b348015610122575f80fd5b5061013d60048036038101906101389190611dba565b6104af565b60405161014a9190611dff565b60405180910390f35b34801561015e575f80fd5b50610167610590565b6040516101749190611e57565b60405180910390f35b348015610188575f80fd5b506101916105b4565b60405161019e9190611efa565b60405180910390f35b3480156101b2575f80fd5b506101cd60048036038101906101c89190611f4d565b610643565b6040516101da9190611e57565b60405180910390f35b3480156101ee575f80fd5b5061020960048036038101906102049190611fa2565b61065e565b005b348015610216575f80fd5b50610231600480360381019061022c9190611fe0565b610674565b005b34801561023e575f80fd5b5061025960048036038101906102549190611fe0565b610773565b005b348015610266575f80fd5b50610281600480360381019061027c9190611f4d565b610792565b60405161028e9190611e57565b60405180910390f35b3480156102a2575f80fd5b506102bd60048036038101906102b89190611f4d565b6107a3565b6040516102ca9190611efa565b60405180910390f35b3480156102de575f80fd5b506102f960048036038101906102f49190612030565b6108ba565b604051610306919061206a565b60405180910390f35b34801561031a575f80fd5b50610323610970565b604051610330919061206a565b60405180910390f35b348015610344575f80fd5b5061034d610976565b60405161035a9190611efa565b60405180910390f35b34801561036e575f80fd5b50610389600480360381019061038491906120ad565b610a06565b005b348015610396575f80fd5b506103b160048036038101906103ac9190612217565b610a1c565b005b3480156103be575f80fd5b506103c7610a41565b6040516103d4919061206a565b60405180910390f35b3480156103e8575f80fd5b5061040360048036038101906103fe9190611f4d565b610a4b565b6040516104109190611efa565b60405180910390f35b348015610424575f80fd5b5061042d610bfa565b60405161043a919061206a565b60405180910390f35b61045d600480360381019061045891906122f4565b610c0f565b60405161046a919061206a565b60405180910390f35b34801561047e575f80fd5b506104996004803603810190610494919061233f565b610dff565b6040516104a69190611dff565b60405180910390f35b5f7f80ac58cd000000000000000000000000000000000000000000000000000000007bffffffffffffffffffffffffffffffffffffffffffffffffffffffff1916827bffffffffffffffffffffffffffffffffffffffffffffffffffffffff1916148061057957507f5b5e139f000000000000000000000000000000000000000000000000000000007bffffffffffffffffffffffffffffffffffffffffffffffffffffffff1916827bffffffffffffffffffffffffffffffffffffffffffffffffffffffff1916145b80610589575061058882610e8d565b5b9050919050565b7f000000000000000000000000000000000000000000000000000000000000000081565b60605f80546105c2906123aa565b80601f01602080910402602001604051908101604052809291908181526020018280546105ee906123aa565b80156106395780601f1061061057610100808354040283529160200191610639565b820191905f5260205f20905b81548152906001019060200180831161061c57829003601f168201915b5050505050905090565b5f61064d82610ef6565b5061065782610f7c565b9050919050565b610670828261066b610fb5565b610fbc565b5050565b5f73ffffffffffffffffffffffffffffffffffffffff168273ffffffffffffffffffffffffffffffffffffffff16036106e4575f6040517f64a0ae920000000000000000000000000000000000000000000000000000000081526004016106db9190611e57565b60405180910390fd5b5f6106f783836106f2610fb5565b610fce565b90508373ffffffffffffffffffffffffffffffffffffffff168173ffffffffffffffffffffffffffffffffffffffff161461076d578382826040517f64283d7b000000000000000000000000000000000000000000000000000000008152600401610764939291906123da565b60405180910390fd5b50505050565b61078d83838360405180602001604052805f815250610a1c565b505050565b5f61079c82610ef6565b9050919050565b60605f73ffffffffffffffffffffffffffffffffffffffff166107c5836111d9565b73ffffffffffffffffffffffffffffffffffffffff160361081b576040517f08c379a000000000000000000000000000000000000000000000000000000000815260040161081290612459565b60405180910390fd5b60075f8381526020019081526020015f208054610837906123aa565b80601f0160208091040260200160405190810160405280929190818152602001828054610863906123aa565b80156108ae5780601f10610885576101008083540402835291602001916108ae565b820191905f5260205f20905b81548152906001019060200180831161089157829003601f168201915b50505050509050919050565b5f8073ffffffffffffffffffffffffffffffffffffffff168273ffffffffffffffffffffffffffffffffffffffff160361092b575f6040517f89c62b640000000000000000000000000000000000000000000000000000000081526004016109229190611e57565b60405180910390fd5b60035f8373ffffffffffffffffffffffffffffffffffffffff1673ffffffffffffffffffffffffffffffffffffffff1681526020019081526020015f20549050919050565b60065481565b606060018054610985906123aa565b80601f01602080910402602001604051908101604052809291908181526020018280546109b1906123aa565b80156109fc5780601f106109d3576101008083540402835291602001916109fc565b820191905f5260205f20905b8154815290600101906020018083116109df57829003601f168201915b5050505050905090565b610a18610a11610fb5565b8383611212565b5050565b610a27848484610674565b610a3b610a32610fb5565b8585858561137b565b50505050565b655af3107a400081565b60605f73ffffffffffffffffffffffffffffffffffffffff16610a6d836111d9565b73ffffffffffffffffffffffffffffffffffffffff1603610ac3576040517f08c379a0000000000000000000000000000000000000000000000000000000008152600401610aba90612459565b60405180910390fd5b5f60075f8481526020019081526020015f208054610ae0906123aa565b80601f0160208091040260200160405190810160405280929190818152602001828054610b0c906123aa565b8015610b575780601f10610b2e57610100808354040283529160200191610b57565b820191905f5260205f20905b815481529060010190602001808311610b3a57829003601f168201915b505050505090505f6040518060400160405280601e81526020017f68747470733a2f2f69696c692e696f2f66784143324c6c2e6d642e706e67000081525090505f610bce610ba486611527565b848486604051602001610bba9493929190612603565b6040516020818303038152906040526115f1565b905080604051602001610be191906126a9565b6040516020818303038152906040529350505050919050565b5f6001600654610c0a91906126fb565b905090565b5f655af3107a4000341015610c59576040517f08c379a0000000000000000000000000000000000000000000000000000000008152600401610c5090612778565b60405180910390fd5b5f8383905011610c9e576040517f08c379a0000000000000000000000000000000000000000000000000000000008152600401610c95906127e0565b60405180910390fd5b60065f8154610cac906127fe565b9190508190559050610cbe3382611604565b828260075f8481526020019081526020015f209182610cde9291906129ec565b50803373ffffffffffffffffffffffffffffffffffffffff167fccb8be59ce6046a5f66e6a3cfe2e59e4b56a68696dfb33e77d0502909ff618aa8585604051610d28929190612ae5565b60405180910390a35f7f000000000000000000000000000000000000000000000000000000000000000073ffffffffffffffffffffffffffffffffffffffff1634604051610d7590612b34565b5f6040518083038185875af1925050503d805f8114610daf576040519150601f19603f3d011682016040523d82523d5f602084013e610db4565b606091505b5050905080610df8576040517f08c379a0000000000000000000000000000000000000000000000000000000008152600401610def90612b92565b60405180910390fd5b5092915050565b5f60055f8473ffffffffffffffffffffffffffffffffffffffff1673ffffffffffffffffffffffffffffffffffffffff1681526020019081526020015f205f8373ffffffffffffffffffffffffffffffffffffffff1673ffffffffffffffffffffffffffffffffffffffff1681526020019081526020015f205f9054906101000a900460ff16905092915050565b5f7f01ffc9a7000000000000000000000000000000000000000000000000000000007bffffffffffffffffffffffffffffffffffffffffffffffffffffffff1916827bffffffffffffffffffffffffffffffffffffffffffffffffffffffff1916149050919050565b5f80610f01836111d9565b90505f73ffffffffffffffffffffffffffffffffffffffff168173ffffffffffffffffffffffffffffffffffffffff1603610f7357826040517f7e273289000000000000000000000000000000000000000000000000000000008152600401610f6a919061206a565b60405180910390fd5b80915050919050565b5f60045f8381526020019081526020015f205f9054906101000a900473ffffffffffffffffffffffffffffffffffffffff169050919050565b5f33905090565b610fc98383836001611621565b505050565b5f80610fd9846111d9565b90505f73ffffffffffffffffffffffffffffffffffffffff168373ffffffffffffffffffffffffffffffffffffffff161461101a576110198184866117e0565b5b5f73ffffffffffffffffffffffffffffffffffffffff168173ffffffffffffffffffffffffffffffffffffffff16146110a5576110595f855f80611621565b600160035f8373ffffffffffffffffffffffffffffffffffffffff1673ffffffffffffffffffffffffffffffffffffffff1681526020019081526020015f205f82825403925050819055505b5f73ffffffffffffffffffffffffffffffffffffffff168573ffffffffffffffffffffffffffffffffffffffff161461112457600160035f8773ffffffffffffffffffffffffffffffffffffffff1673ffffffffffffffffffffffffffffffffffffffff1681526020019081526020015f205f82825401925050819055505b8460025f8681526020019081526020015f205f6101000a81548173ffffffffffffffffffffffffffffffffffffffff021916908373ffffffffffffffffffffffffffffffffffffffff160217905550838573ffffffffffffffffffffffffffffffffffffffff168273ffffffffffffffffffffffffffffffffffffffff167fddf252ad1be2c89b69c2b068fc378daa952ba7f163c4a11628f55a4df523b3ef60405160405180910390a4809150509392505050565b5f60025f8381526020019081526020015f205f9054906101000a900473ffffffffffffffffffffffffffffffffffffffff169050919050565b5f73ffffffffffffffffffffffffffffffffffffffff168273ffffffffffffffffffffffffffffffffffffffff160361128257816040517f5b08ba180000000000000000000000000000000000000000000000000000000081526004016112799190611e57565b60405180910390fd5b8060055f8573ffffffffffffffffffffffffffffffffffffffff1673ffffffffffffffffffffffffffffffffffffffff1681526020019081526020015f205f8473ffffffffffffffffffffffffffffffffffffffff1673ffffffffffffffffffffffffffffffffffffffff1681526020019081526020015f205f6101000a81548160ff0219169083151502179055508173ffffffffffffffffffffffffffffffffffffffff168373ffffffffffffffffffffffffffffffffffffffff167f17307eab39ab6107e8899845ad3d59bd9653f200f220920489ca2b5937696c318360405161136e9190611dff565b60405180910390a3505050565b5f8373ffffffffffffffffffffffffffffffffffffffff163b1115611520578273ffffffffffffffffffffffffffffffffffffffff1663150b7a02868685856040518563ffffffff1660e01b81526004016113d99493929190612c02565b6020604051808303815f875af192505050801561141457506040513d601f19601f820116820180604052508101906114119190612c60565b60015b611495573d805f8114611442576040519150601f19603f3d011682016040523d82523d5f602084013e611447565b606091505b505f81510361148d57836040517f64a0ae920000000000000000000000000000000000000000000000000000000081526004016114849190611e57565b60405180910390fd5b805160208201fd5b63150b7a0260e01b7bffffffffffffffffffffffffffffffffffffffffffffffffffffffff1916817bffffffffffffffffffffffffffffffffffffffffffffffffffffffff19161461151e57836040517f64a0ae920000000000000000000000000000000000000000000000000000000081526004016115159190611e57565b60405180910390fd5b505b5050505050565b60605f6001611535846118a3565b0190505f8167ffffffffffffffff811115611553576115526120f3565b5b6040519080825280601f01601f1916602001820160405280156115855781602001600182028036833780820191505090505b5090505f82602083010190505b6001156115e6578080600190039150507f3031323334353637383961626364656600000000000000000000000000000000600a86061a8153600a85816115db576115da612c8b565b5b0494505f8503611592575b819350505050919050565b60606115fd825f6119f4565b9050919050565b61161d828260405180602001604052805f815250611b7e565b5050565b808061165957505f73ffffffffffffffffffffffffffffffffffffffff168273ffffffffffffffffffffffffffffffffffffffff1614155b1561178b575f61166884610ef6565b90505f73ffffffffffffffffffffffffffffffffffffffff168373ffffffffffffffffffffffffffffffffffffffff16141580156116d257508273ffffffffffffffffffffffffffffffffffffffff168173ffffffffffffffffffffffffffffffffffffffff1614155b80156116e557506116e38184610dff565b155b1561172757826040517fa9fbf51f00000000000000000000000000000000000000000000000000000000815260040161171e9190611e57565b60405180910390fd5b811561178957838573ffffffffffffffffffffffffffffffffffffffff168273ffffffffffffffffffffffffffffffffffffffff167f8c5be1e5ebec7d5bd14f71427d1e84f3dd0314c0f7b2291e5b200ac8c7c3b92560405160405180910390a45b505b8360045f8581526020019081526020015f205f6101000a81548173ffffffffffffffffffffffffffffffffffffffff021916908373ffffffffffffffffffffffffffffffffffffffff16021790555050505050565b6117eb838383611ba1565b61189e575f73ffffffffffffffffffffffffffffffffffffffff168373ffffffffffffffffffffffffffffffffffffffff160361185f57806040517f7e273289000000000000000000000000000000000000000000000000000000008152600401611856919061206a565b60405180910390fd5b81816040517f177e802f000000000000000000000000000000000000000000000000000000008152600401611895929190612cb8565b60405180910390fd5b505050565b5f805f90507a184f03e93ff9f4daa797ed6e38ed64bf6a1f01000000000000000083106118ff577a184f03e93ff9f4daa797ed6e38ed64bf6a1f01000000000000000083816118f5576118f4612c8b565b5b0492506040810190505b6d04ee2d6d415b85acef8100000000831061193c576d04ee2d6d415b85acef8100000000838161193257611931612c8b565b5b0492506020810190505b662386f26fc10000831061196b57662386f26fc10000838161196157611960612c8b565b5b0492506010810190505b6305f5e1008310611994576305f5e100838161198a57611989612c8b565b5b0492506008810190505b61271083106119b95761271083816119af576119ae612c8b565b5b0492506004810190505b606483106119dc57606483816119d2576119d1612c8b565b5b0492506002810190505b600a83106119eb576001810190505b80915050919050565b60605f835103611a145760405180602001604052805f8152509050611b78565b5f82611a4557600360028551611a2a91906126fb565b611a349190612cdf565b6004611a409190612d0f565b611a6c565b6003600285516004611a579190612d0f565b611a6191906126fb565b611a6b9190612cdf565b5b905060405191507f4142434445464748494a4b4c4d4e4f505152535455565758595a616263646566601f5261067083027f6768696a6b6c6d6e6f707172737475767778797a303132333435363738392b2f18603f526020820181810185865187016020810180515f82525b82841015611b2a576003840193508351603f8160121c16518753600187019650603f81600c1c16518753600187019650603f8160061c16518753600187019650603f811651875360018701965050611ad7565b80825288611b695760038a510660018114611b4c5760028114611b5f57611b67565b603d6001880353603d6002880353611b67565b603d60018803535b505b86885284604052505050505050505b92915050565b611b888383611c61565b611b9c611b93610fb5565b5f85858561137b565b505050565b5f8073ffffffffffffffffffffffffffffffffffffffff168373ffffffffffffffffffffffffffffffffffffffff1614158015611c5857508273ffffffffffffffffffffffffffffffffffffffff168473ffffffffffffffffffffffffffffffffffffffff161480611c195750611c188484610dff565b5b80611c5757508273ffffffffffffffffffffffffffffffffffffffff16611c3f83610f7c565b73ffffffffffffffffffffffffffffffffffffffff16145b5b90509392505050565b5f73ffffffffffffffffffffffffffffffffffffffff168273ffffffffffffffffffffffffffffffffffffffff1603611cd1575f6040517f64a0ae92000000000000000000000000000000000000000000000000000000008152600401611cc89190611e57565b60405180910390fd5b5f611cdd83835f610fce565b90505f73ffffffffffffffffffffffffffffffffffffffff168173ffffffffffffffffffffffffffffffffffffffff1614611d4f575f6040517f73c6ac6e000000000000000000000000000000000000000000000000000000008152600401611d469190611e57565b60405180910390fd5b505050565b5f604051905090565b5f80fd5b5f80fd5b5f7fffffffff0000000000000000000000000000000000000000000000000000000082169050919050565b611d9981611d65565b8114611da3575f80fd5b50565b5f81359050611db481611d90565b92915050565b5f60208284031215611dcf57611dce611d5d565b5b5f611ddc84828501611da6565b91505092915050565b5f8115159050919050565b611df981611de5565b82525050565b5f602082019050611e125f830184611df0565b92915050565b5f73ffffffffffffffffffffffffffffffffffffffff82169050919050565b5f611e4182611e18565b9050919050565b611e5181611e37565b82525050565b5f602082019050611e6a5f830184611e48565b92915050565b5f81519050919050565b5f82825260208201905092915050565b5f5b83811015611ea7578082015181840152602081019050611e8c565b5f8484015250505050565b5f601f19601f8301169050919050565b5f611ecc82611e70565b611ed68185611e7a565b9350611ee6818560208601611e8a565b611eef81611eb2565b840191505092915050565b5f6020820190508181035f830152611f128184611ec2565b905092915050565b5f819050919050565b611f2c81611f1a565b8114611f36575f80fd5b50565b5f81359050611f4781611f23565b92915050565b5f60208284031215611f6257611f61611d5d565b5b5f611f6f84828501611f39565b91505092915050565b611f8181611e37565b8114611f8b575f80fd5b50565b5f81359050611f9c81611f78565b92915050565b5f8060408385031215611fb857611fb7611d5d565b5b5f611fc585828601611f8e565b9250506020611fd685828601611f39565b9150509250929050565b5f805f60608486031215611ff757611ff6611d5d565b5b5f61200486828701611f8e565b935050602061201586828701611f8e565b925050604061202686828701611f39565b9150509250925092565b5f6020828403121561204557612044611d5d565b5b5f61205284828501611f8e565b91505092915050565b61206481611f1a565b82525050565b5f60208201905061207d5f83018461205b565b92915050565b61208c81611de5565b8114612096575f80fd5b50565b5f813590506120a781612083565b92915050565b5f80604083850312156120c3576120c2611d5d565b5b5f6120d085828601611f8e565b92505060206120e185828601612099565b9150509250929050565b5f80fd5b5f80fd5b7f4e487b71000000000000000000000000000000000000000000000000000000005f52604160045260245ffd5b61212982611eb2565b810181811067ffffffffffffffff82111715612148576121476120f3565b5b80604052505050565b5f61215a611d54565b90506121668282612120565b919050565b5f67ffffffffffffffff821115612185576121846120f3565b5b61218e82611eb2565b9050602081019050919050565b828183375f83830152505050565b5f6121bb6121b68461216b565b612151565b9050828152602081018484840111156121d7576121d66120ef565b5b6121e284828561219b565b509392505050565b5f82601f8301126121fe576121fd6120eb565b5b813561220e8482602086016121a9565b91505092915050565b5f805f806080858703121561222f5761222e611d5d565b5b5f61223c87828801611f8e565b945050602061224d87828801611f8e565b935050604061225e87828801611f39565b925050606085013567ffffffffffffffff81111561227f5761227e611d61565b5b61228b878288016121ea565b91505092959194509250565b5f80fd5b5f80fd5b5f8083601f8401126122b4576122b36120eb565b5b8235905067ffffffffffffffff8111156122d1576122d0612297565b5b6020830191508360018202830111156122ed576122ec61229b565b5b9250929050565b5f806020838503121561230a57612309611d5d565b5b5f83013567ffffffffffffffff81111561232757612326611d61565b5b6123338582860161229f565b92509250509250929050565b5f806040838503121561235557612354611d5d565b5b5f61236285828601611f8e565b925050602061237385828601611f8e565b9150509250929050565b7f4e487b71000000000000000000000000000000000000000000000000000000005f52602260045260245ffd5b5f60028204905060018216806123c157607f821691505b6020821081036123d4576123d361237d565b5b50919050565b5f6060820190506123ed5f830186611e48565b6123fa602083018561205b565b6124076040830184611e48565b949350505050565b7f4552433732313a20696e76616c696420746f6b656e00000000000000000000005f82015250565b5f612443601583611e7a565b915061244e8261240f565b602082019050919050565b5f6020820190508181035f83015261247081612437565b9050919050565b5f81905092915050565b7f7b226e616d65223a22486f6c6964617920466f7274756e6520436f6f6b6965205f8201527f2300000000000000000000000000000000000000000000000000000000000000602082015250565b5f6124db602183612477565b91506124e682612481565b602182019050919050565b5f6124fb82611e70565b6125058185612477565b9350612515818560208601611e8a565b80840191505092915050565b7f222c226465736372697074696f6e223a22000000000000000000000000000000815250565b7f222c22696d616765223a22000000000000000000000000000000000000000000815250565b7f222c2261747472696275746573223a5b7b2274726169745f74797065223a22465f8201527f6f7274756e65222c2276616c7565223a22000000000000000000000000000000602082015250565b5f6125c7603183612477565b91506125d28261256d565b603182019050919050565b7f227d5d7d00000000000000000000000000000000000000000000000000000000815250565b5f61260d826124cf565b915061261982876124f1565b915061262482612521565b60118201915061263482866124f1565b915061263f82612547565b600b8201915061264f82856124f1565b915061265a826125bb565b915061266682846124f1565b9150612671826125dd565b60048201915081905095945050505050565b7f646174613a6170706c69636174696f6e2f6a736f6e3b6261736536342c000000815250565b5f6126b382612683565b601d820191506126c382846124f1565b915081905092915050565b7f4e487b71000000000000000000000000000000000000000000000000000000005f52601160045260245ffd5b5f61270582611f1a565b915061271083611f1a565b9250828201905080821115612728576127276126ce565b5b92915050565b7f4d696e74207072696365206e6f74206d657400000000000000000000000000005f82015250565b5f612762601283611e7a565b915061276d8261272e565b602082019050919050565b5f6020820190508181035f83015261278f81612756565b9050919050565b7f466f7274756e65207265717569726564000000000000000000000000000000005f82015250565b5f6127ca601083611e7a565b91506127d582612796565b602082019050919050565b5f6020820190508181035f8301526127f7816127be565b9050919050565b5f61280882611f1a565b91507fffffffffffffffffffffffffffffffffffffffffffffffffffffffffffffffff820361283a576128396126ce565b5b600182019050919050565b5f82905092915050565b5f819050815f5260205f209050919050565b5f6020601f8301049050919050565b5f82821b905092915050565b5f600883026128ab7fffffffffffffffffffffffffffffffffffffffffffffffffffffffffffffffff82612870565b6128b58683612870565b95508019841693508086168417925050509392505050565b5f819050919050565b5f6128f06128eb6128e684611f1a565b6128cd565b611f1a565b9050919050565b5f819050919050565b612909836128d6565b61291d612915826128f7565b84845461287c565b825550505050565b5f90565b612931612925565b61293c818484612900565b505050565b5b8181101561295f576129545f82612929565b600181019050612942565b5050565b601f8211156129a4576129758161284f565b61297e84612861565b8101602085101561298d578190505b6129a161299985612861565b830182612941565b50505b505050565b5f82821c905092915050565b5f6129c45f19846008026129a9565b1980831691505092915050565b5f6129dc83836129b5565b9150826002028217905092915050565b6129f68383612845565b67ffffffffffffffff811115612a0f57612a0e6120f3565b5b612a1982546123aa565b612a24828285612963565b5f601f831160018114612a51575f8415612a3f578287013590505b612a4985826129d1565b865550612ab0565b601f198416612a5f8661284f565b5f5b82811015612a8657848901358255600182019150602085019450602081019050612a61565b86831015612aa35784890135612a9f601f8916826129b5565b8355505b6001600288020188555050505b50505050505050565b5f612ac48385611e7a565b9350612ad183858461219b565b612ada83611eb2565b840190509392505050565b5f6020820190508181035f830152612afe818486612ab9565b90509392505050565b5f81905092915050565b50565b5f612b1f5f83612b07565b9150612b2a82612b11565b5f82019050919050565b5f612b3e82612b14565b9150819050919050565b7f546970207472616e73666572206661696c6564000000000000000000000000005f82015250565b5f612b7c601383611e7a565b9150612b8782612b48565b602082019050919050565b5f6020820190508181035f830152612ba981612b70565b9050919050565b5f81519050919050565b5f82825260208201905092915050565b5f612bd482612bb0565b612bde8185612bba565b9350612bee818560208601611e8a565b612bf781611eb2565b840191505092915050565b5f608082019050612c155f830187611e48565b612c226020830186611e48565b612c2f604083018561205b565b8181036060830152612c418184612bca565b905095945050505050565b5f81519050612c5a81611d90565b92915050565b5f60208284031215612c7557612c74611d5d565b5b5f612c8284828501612c4c565b91505092915050565b7f4e487b71000000000000000000000000000000000000000000000000000000005f52601260045260245ffd5b5f604082019050612ccb5f830185611e48565b612cd8602083018461205b565b9392505050565b5f612ce982611f1a565b9150612cf483611f1a565b925082612d0457612d03612c8b565b5b828204905092915050565b5f612d1982611f1a565b9150612d2483611f1a565b9250828202612d3281611f1a565b91508282048414831517612d4957612d486126ce565b5b509291505056fea2646970667358221220b089a71e4fc203103ec1592d94bde90985597371edbacbad6dfa0cc1df73700864736f6c63430008180033","linkReferences":{}},"methodIdentifiers":{"MINT_PRICE()":"c002d23d","approve(address,uint256)":"095ea7b3","balanceOf(address)":"70a08231","creator()":"02d05d3f","fortuneOf(uint256)":"6aaf6875","getApproved(uint256)":"081812fc","getNextTokenId()":"caa0f92a","isApprovedForAll(address,address)":"e985e9c5","mint(string)":"d85d3d27","name()":"06fdde03","ownerOf(uint256)":"6352211e","safeTransferFrom(address,address,uint256)":"42842e0e","safeTransferFrom(address,address,uint256,bytes)":"b88d4fde","setApprovalForAll(address,bool)":"a22cb465","supportsInterface(bytes4)":"01ffc9a7","symbol()":"95d89b41","tokenSupply()":"7824407f","tokenURI(uint256)":"c87b56dd","transferFrom(address,address,uint256)":"23b872dd"},"id":16}